:04000000D0EF04F049
:100600000020204C434420446973706C61792020A1
:0F061000002020342D626974206D6F6465000036
:10062000036E03B002D08D9401D08D84060E026E4D
:10063000300EE82EFED7022EFCD700D001B823EFF3
:1006400003F027EF03F0026A022A28EF03F0026AA0
:10065000023A8C500218EF0B02188C6E01BA33EF7D
:1006600003F037EF03F0026A022A38EF03F0026A60
:10067000023A02468C500218DF0B02188C6E01BC45
:1006800044EF03F048EF03F0026A022A49EF03F057
:10069000026A023A024602468C500218BF0B021848
:1006A0008C6E01BE56EF03F05AEF03F0026A022A85
:1006B0005BEF03F0026A023202328C5002187F0BA9
:1006C00002188C6EB3EC04F00138F00B016E01B827
:1006D0006CEF03F070EF03F0026A022A71EF03F08F
:1006E000026A023A8C500218EF0B02188C6E01BAA3
:1006F0007CEF03F080EF03F0026A022A81EF03F03F
:10070000026A023A02468C500218DF0B02188C6E05
:1007100001BC8DEF03F091EF03F0026A022A92EF21
:1007200003F0026A023A024602468C500218BF0BDE
:1007300002188C6E01BE9FEF03F0A3EF03F0026A74
:10074000022AA4EF03F0026A023202328C5002182D
:100750007F0B02188C6EB3EC04F0120095988C9805
:10076000959A8C9A959C8C9C959E8C9E96928D9435
:1007700096948D94020E066E040E056EBA0EE82E47
:10078000FED7052EFCD7062EFAD700D08C888C8A8F
:10079000B3EC04F0B3EC04F0B3EC04F0030E056E1C
:1007A000980EE82EFED7052EFCD78C988C8AB3ECD9
:1007B00004F0B3EC04F0B3EC04F0030E056E980EF5
:1007C000E82EFED7052EFCD7280EC2EC04F00C0E46
:1007D000C2EC04F0060EC2EC04F0010EC2EC04F010
:1007E0001200D5EC04F093909392AEEC03F0010E5E
:1007F000C2EC04F0010E066E010E076E060E086EC6
:10080000010E32EC04F0010E066E110E076E060E9C
:10081000086E020E32EC04F00D0E056E410E066EEF
:10082000020E66EC04F0250EC9EC04F08A82060E76
:100830000D6E130E0C6EAE0EE82EFED70C2EFCD7EE
:100840000D2EFAD78A92060E0D6E130E0C6EAE0E9A
:10085000E82EFED70C2EFCD70D2EFAD716EF04F09B
:1008600000EF00F00B6E8D944AEF04F006507F0FFE
:10087000066E06C001F0000E10EC03F05FEF04F00E
:100880000650BF0F066E06C001F0000E10EC03F01C
:100890005FEF04F00B50096E0A6A0A50000AD8B4E0
:1008A00054EF04F05FEF04F00950010AD8B436EFBA
:1008B00004F0030AD8B440EF04F05FEF04F007C07F
:1008C00004F008C005F096EC04F01200096E8D9457
:1008D0007DEF04F005507F0F056E05C001F0000E9E
:1008E00010EC03F092EF04F0BF0E052605C001F0F6
:1008F000000E10EC03F092EF04F00950076E086A46
:100900000850000AD8B487EF04F092EF04F00750C3
:10091000010AD8B46AEF04F0030AD8B474EF04F003
:1009200092EF04F00650C9EC04F01200A4EF04F0BA
:1009300004C0F6FF05C0F7FF0800F5CF01F0010E77
:1009400010EC03F0044A052A04C0F6FF05C0F7FFC7
:100950000800F5500009D8A4B0EF04F0B2EF04F09D
:1009600098EF04F012001A0EE82EFED700D08D8208
:100970001A0EE82EFED700D08D921A0EE82EFED762
:1009800000D01200046E04C001F0000E10EC03F061
:100990001200046E04C001F0010E10EC03F012000E
:1009A000000EF86E0001F1EF03F0000E0F01396F39
:0209B000120033
:020000040020DA
:08000000FFFFFFFFFFFFFFFF00
:020000040030CA
:0E000000FF221F3FFFBF85FF0FC00FE00F4024
:00000001FF
